:100000000C945B000C9481000C9481000C94810092
:100010000C9481000C9481000C9481000C9481005C
:100020000C9481000C9481000C9481000C9481004C
:100030000C9481000C9481000C9481000C9481003C
:100040000C9432030C9481000C9484050C94810070
:100050000C9481000C9481000C9481000C9481001C
:100060000C9481000C948100310300000007000211
:10007000010000030406000000000000000001026F
:100080000408102040800102040810200102040826
:100090001020040404040404040402020202020204
:1000A0000303030303030000232629000025282B54
:1000B000000024272A0011241FBECFEFD4E0DEBFAA
:1000C000CDBF11E0A0E0B1E0E0E0FEE002C00590AD
:1000D0000D92AC30B107D9F711E0ACE0B1E001C04E
:1000E0001D92A53AB107E1F710E0CAE6D0E004C0DE
:1000F0002297FE010E94FC06C836D107C9F70C946E
:1001000061020C940000EF92FF920F931F939B01EA
:100110007A0164E070E00E949606FB0170930D0185
:1001200060930C01C90164E070E00E9496068B01A7
:100130007093090160930801C70164E070E00E94B8
:1001400096069B017093070160930601B8016E1B30
:100150007F0B8FEF90E00E9496068AE0E82EF12C4C
:100160006E9DC0016F9D900D7E9D900D112490930A
:10017000190180931801AC01E49FC001E59F900D27
:10018000F49F900D11248A50964F909315018093FF
:100190001401865F99409093130180931201201BF4
:1001A000310B8FEF90E0B9010E9496066E9DC00161
:1001B0006F9D900D7E9D900D11249093170180935B
:1001C00016019C01029FC001039F900D129F900D8C
:1001D00011248A50964F9093110180931001865FED
:1001E000994090930F0180930E011F910F91FF9002
:1001F000EF90089561E0809104010E94580461E04D
:10020000809102010E94580461E0809100010E94E7
:10021000580460E070E0809104010E94040460E0F2
:1002200070E0809102010E94040460E070E080911F
:1002300000010E9404044091060150910701609161
:1002400008017091090180910C0190910D010E94AB
:100250008300089540E855E260E070E08CE191E0B1
:100260000E946E020E94FA0046E851E060E471E0EC
:1002700086EE90E00E9483000895EF92FF920F9324
:100280001F93E62EF42E0FEF10E0B801681B7109E2
:10029000809104010E940404B8016F1971098091D2
:1002A00002010E9404040E191109B8018091000195
:1002B0000E9404041F910F91FF90EF9008951F93E7
:1002C000CF93DF93C0E0D0E040E06C2F8FEF0E942F
:1002D0003D0163E070E080E090E00E946F032196B2
:1002E000CF3FD10589F71FEF40E06FEF812F0E94CC
:1002F0003D0163E070E080E090E00E946F031150E8
:1003000099F7C0E0D0E04C2F6FEF80E00E943D01F4
:1003100063E070E080E090E00E946F032196CF3FA1
:10032000D10589F71FEF4FEF612F80E00E943D015B
:1003300063E070E080E090E00E946F03115099F755
:10034000C0E0D0E04FEF60E08C2F0E943D0163E001
:1003500070E080E090E00E946F032196CF3FD105CE
:1003600089F71FEF412F60E08FEF0E943D0163E0AE
:1003700070E080E090E00E946F03115099F7DF91E8
:10038000CF911F910895EF92FF920F931F93CF93F8
:10039000DF9364E070E00E949606162F8CE191E0F6
:1003A0000E94AC02C12FDD2780910C0190910D01BC
:1003B0008C179D0734F09FEFE92EF12C00E010E040
:1003C0002BC02091080130910901C90105978C17B4
:1003D0009D072CF1E0911801F0911901EC9F90011B
:1003E000ED9F300DFC9F300D1124809114019091F0
:1003F0001501821B930B6AE070E00E9496067B0158
:10040000C9012091120130911301821B930B6AE004
:1004100070E00E9496068B0180E090E03CC02B5F6C
:100420003F4F2C173D072CF0EE24FF240FEF10E078
:10043000F3CF80910601909107018C179D073CF442
:10044000EE24FF2400E010E08FEF90E024C0E09164
:100450001601F0911701EC9F9001ED9F300DFC9F6C
:10046000300D11248091100190911101821B930B8A
:100470006AE070E00E9496068B01C90120910E018E
:1004800030910F01821B930B6AE070E00E94960688
:10049000CB01EE24FF244E2D602F0E943D01DF9101
:1004A000CF911F910F91FF90EF90089580910A01D5
:1004B0000E94E90390931B0180931A010E94C301DB
:1004C0000895CFEFD4E0DEBFCDBF0E949F030E940E
:1004D0002A010E945602FDCF08950895CB01BA016A
:1004E0000E940A0508950E944B05992708950E94CD
:1004F0005C0508950E947B050895862F0E94C20521
:100500000895CB010E94C9050895862F0E94C20557
:1005100008950F931F938C016DE00E947D026AE0A5
:10052000C8010E947D021F910F9108950F931F93A0
:100530008C010E947D02C8010E9489021F910F91C7
:1005400008950F931F938C010E948102C8010E949D
:1005500089021F910F9108950F931F938C010E94A0
:100560008502C8010E9489021F910F910895CB0155
:10057000BA013327442755270E94D60508952AE05B
:100580000E94B70208950F931F938C010E94BF022F
:10059000C8010E9489021F910F910895AB0166273F
:1005A00077270E94BF020895EF92FF920F931F9347
:1005B000CF93DF93EC017A018B0177FF0BC06DE2E3
:1005C0000E947D0210950095F094E094E11CF11CCE
:1005D000011D111D2AE0B801A701CE010E94B7023A
:1005E000DF91CF911F910F91FF90EF9008950F939E
:1005F0001F938C010E94D402C8010E9489021F919E
:100600000F9108952115310521F4642F0E947D0278
:1006100008952A30310519F40E94D40208950E94E9
:10062000B70208950F931F938C010E940203C80123
:100630000E9489021F910F910895AB01662757FD13
:100640006095762F0E94D40208950F931F938C011A
:100650000E941D03C8010E9489021F910F910895F5
:10066000089508951F920F920FB60F9211248F9341
:100670009F93AF93BF938091210190912201A0910C
:100680002301B09124010196A11DB11D8093210188
:1006900090932201A0932301B0932401BF91AF91C5
:1006A0009F918F910F900FBE0F901F9018956091A2
:1006B000210170912201809123019091240127E072
:1006C000660F771F881F991F2A95D1F72EE330E018
:1006D00040E050E00E94A906CA01B9010895AF9216
:1006E000BF92CF92DF92EF92FF920F931F935B0125
:1006F0006C010E9457037B018C010E9457036E1905
:100700007F09800B910B6A157B058C059D05A8F36D
:100710001F910F91FF90EF90DF90CF90BF90AF901F
:1007200008958130910551F0029741F0880F991F8B
:1007300001972FB7F8940197F1F72FBF0895789498
:100740001092210110922201109223011092240193
:1007500084B5826084BD84B5816084BD85B58260C6
:1007600085BD85B5816085BDEEE6F0E08081816064
:100770008083E1E8F0E08081826080838081816015
:100780008083E0E8F0E0808181608083E1EBF0E04D
:10079000808184608083E0EBF0E0808181608083F1
:1007A000ECE7F0E080818F778083808180648083B4
:1007B000EAE7F0E0808184608083808182608083CA
:1007C0008081816080838081806880831092C100F5
:1007D000089590917C00907F8F70982B90937C006F
:1007E00080917A00806480937A0080917A0086FDFF
:1007F000FCCF20917800809179009927982F882745
:100800003327822B932B08951F93CF93DF93182FB9
:10081000EB0161E00E945804E12FFF27E659FF4FEA
:100820008491833051F480918000806880938000AF
:10083000D0938900C093880037C0843051F48091F0
:100840008000806280938000D0938B00C0938A00E8
:100850002BC0813029F484B5806884BDC7BD24C015
:10086000823029F484B5806284BDC8BD1DC0863045
:1008700041F48091B00080688093B000C093B300D1
:1008800013C0873041F48091B00080628093B00043
:10089000C093B40009C0C038D10514F460E001C0B1
:1008A00061E0812F0E94BF04DF91CF911F910895D5
:1008B000282F3327C90182589F4FFC0194912E564F
:1008C0003F4FF9018491882381F0E82FFF27E055FD
:1008D000FF4FE491FF27662329F4808190958923B7
:1008E000808308958081892B80830895482F552720
:1008F000CA0186599F4FFC012491CA0182589F4F1B
:10090000FC0194914E565F4FFA0134913323A1F1CB
:10091000222331F1233021F4809180008F7705C0AC
:10092000243031F4809180008F7D8093800018C046
:10093000213019F484B58F7704C0223021F484B5B6
:100940008F7D84BD0DC0263021F48091B0008F775B
:1009500005C0273029F48091B0008F7D8093B000CE
:10096000E32FFF27EA55FF4FE491FF27808189237A
:1009700019F081E090E0089580E090E00895482F1C
:100980005527CA0186599F4FFC012491CA018258FC
:100990009F4FFC0194914E565F4FFA0134913323DF
:1009A000C1F1222331F1233021F4809180008F772F
:1009B00005C0243031F4809180008F7D80938000C9
:1009C00018C0213019F484B58F7704C0223021F487
:1009D00084B58F7D84BD0DC0263021F48091B00098
:1009E0008F7705C0273029F48091B0008F7D8093E8
:1009F000B000E32FFF27E555FF4FE491FF27662363
:100A000029F4808190958923808308958081892BA2
:100A100080830895EF92FF920F931F937B018C01C7
:100A200022E030E040E050E00E94CB06205E3E45F0
:100A3000484F5F4FCA01B901A80197010E94CB0638
:100A40002150304040405040BB2757FDBA95A52F5C
:100A5000942F832F2F5F3F4F4F4F5F4F8093C500E1
:100A600021502093C400E1ECF0E08081806180831C
:100A70008081886080838081806880831F910F914E
:100A8000FF90EF900895982F8091C00085FFFCCFD4
:100A90009093C600089580911F01909120012091AC
:100AA0001D0130911E01821B930B80589F4F60E8FF
:100AB00070E00E949606089540911D0150911E011C
:100AC00080911F01909120018417950719F48FEFF1
:100AD0009FEF0895FA01EB5DFE4F2081CA01019658
:100AE00060E870E00E94960690931E0180931D01BD
:100AF000822F9927089580911D0190911E01909356
:100B0000200180931F0108951F920F920FB60F923C
:100B100011242F933F934F935F936F937F938F9302
:100B20009F93AF93BF93EF93FF934091C600E091E3
:100B30001F01F0912001CF01019660E870E00E9452
:100B400096069C0180911D0190911E01281739077E
:100B500039F0EB5DFE4F40833093200120931F015D
:100B6000FF91EF91BF91AF919F918F917F916F9185
:100B70005F914F913F912F910F900FBE0F901F905B
:100B8000189508950E94430508958AE00E94C205C1
:100B90000895CF93DF93EC0103C021960E94C20514
:100BA00088818823D1F7DF91CF9108952F923F92CA
:100BB0004F925F926F927F928F929F92AF92BF926D
:100BC000CF92DF92EF92FF920F931F93CF93DF9319
:100BD000CDB7DEB7A0970FB6F894DEBF0FBECDBF7E
:100BE0006B017C0119012A016115710581059105CF
:100BF00021F480E30E94C2054BC0662477244301A0
:100C00005E010894A11CB11C8501060D171DC701CA
:100C1000B601A20191010E94A906F801608308941F
:100C2000611C711C811C911CC701B601A2019101BC
:100C30000E94A90669017A01211531054105510576
:100C400019F773010894E108F108EA0CFB1CAA24C7
:100C5000BB24650111C0F70180818A3010F4805DEA
:100C600001C0895C0E94C2050894A108B108C108AE
:100C7000D1080894E108F10888279927DC01861932
:100C80009709A809B909A816B906CA06DB0619F713
:100C9000A0960FB6F894DEBF0FBECDBFDF91CF9107
:100CA0001F910F91FF90EF90DF90CF90BF90AF908A
:100CB0009F908F907F906F905F904F903F902F907C
:100CC0000895EF92FF920F931F937B018C0197FF82
:100CD0000BC08DE20E94C20510950095F094E0943F
:100CE000E11CF11C011D111D2AE030E040E050E044
:100CF000C801B7010E94D6051F910F91FF90EF9098
:100D0000089520E130E040E050E00E94D6050895CB
:100D100028E030E040E050E00E94D605089522E04F
:100D200030E040E050E00E94D605089597FB092E80
:100D300007260AD077FD04D049D006D000201AF447
:100D4000709561957F4F0895F6F7909581959F4F27
:100D50000895A1E21A2EAA1BBB1BFD010DC0AA1FFC
:100D6000BB1FEE1FFF1FA217B307E407F50720F014
:100D7000A21BB30BE40BF50B661F771F881F991F8F
:100D80001A9469F760957095809590959B01AC01D8
:100D9000BD01CF01089597FB092E05260ED057FD02
:100DA00004D0D7DF0AD0001C38F450954095309518
:100DB00021953F4F4F4F5F4F0895F6F790958095DF
:100DC000709561957F4F8F4F9F4F0895AA1BBB1B56
:100DD00051E107C0AA1FBB1FA617B70710F0A61B3B
:100DE000B70B881F991F5A95A9F780959095BC015C
:100DF000CD010895EE0FFF1F0590F491E02D0994A9
:0C0E00000B000A000900FF03FA000500C7
:00000001FF
